:020000040800F2
:10000000A8400020050100080B1000081F0F000881
:1000100009100008130200089111000800000000F8
:100020000000000000000000000000000F100008A9
:1000300015020008000000000D1000081110000853
:100040001F0100081F0100081F0100081F01000810
:100050001F0100081F0100081F0100081F01000800
:100060001F0100081F0100081F0100081F010008F0
:100070001F0100081F0100081F0100081F010008E0
:100080001F0100081F0100081F0100081F010008D0
:100090001F0100081F0100081F0100081F010008C0
:1000A0001F0100081F0100081F0100081F010008B0
:1000B0001F0100081F0100081F0100081F010008A0
:1000C0001F0100081F0100081F0100081F01000890
:1000D0001F0100081F0100081F0100081F01000880
:1000E0001F0100081F0100081F010008DFF810D0E1
:1000F00000F06EF800480047C9140008AFF3008014
:10010000A84000200648804706480047FEE7FEE773
:10011000FEE7FEE7FEE7FEE7FEE7FEE7FEE7FEE7B7
:1001200073100008ED000008202A04DB203A21FAB1
:1001300002F00021704721FA02F3D040C2F1200200
:100140009140084319467047D2B201E000F8012BF4
:10015000491EFBD270470022F6E710B513460A4647
:1001600004461946FFF7F0FF204610BD2DE9F05F69
:100170000546002092469B46884606468146402416
:100180001BE02846414647462246FFF7CDFF53462F
:100190005A46C01A914110D311461846224600F023
:1001A00029F82D1A67EB01084F462246012000214D
:1001B00000F020F817EB00094E41201EA4F10104C5
:1001C000DFDC484631462A464346BDE8F09F000042
:1001D000064C074D06E0E06840F0010394E8070094
:1001E00098471034AC42F6D3FFF784FFE4150008BB
:1001F00004160008202A04DB203A00FA02F100204D
:1002000070479140C2F1200320FA03F31943904054
:100210007047FEE7704700002DE9F84FDFF8B8910E
:10022000002409F1040A0AF1040B23460F270BF1FD
:10023000040EC9E00125A5402A40AA427DD1674E9F
:10024000D1F804C0ACEB0608B44532D014DCBCF1E4
:10025000030F3AD009DCBCF1000F2AD0BCF1010F2A
:100260001CD0BCF1020F31D11DE0BCF1110F17D031
:10027000BCF1120F2AD119E0B8F5881F19D006DC9D
:10028000B8F5803F15D0B8F5801F1FD111E0B8F543
:10029000001F0ED0B8F5041F18D10AE0CB6815E096
:1002A000CB681B1D12E0CB6808330FE0CB680C3322
:1002B0000CE08B682BB1012B4FF0080303D0456194
:1002C00004E0042302E0056100E00023FF2A01D8D6
:1002D000064601E000F104064FEA840501D9A5F1C4
:1002E0002005D6F8008007FA05FC28EA0C0803FA76
:1002F00005F548EA0508C6F800804D68ED0062D5AE
:10030000374DAE6946F00106AE61AD6924F00306D3
:1003100005F001050095334D06EB050CDCF808509F
:10032000A607360F07FA06F825EA0805DFF8B880B1
:10033000404503D14FF0000817E044E0DFF8AC80FF
:10034000404502D14FF001080FE0DFF8A48040459E
:1003500002D14FF0020808E0DFF89880404502D152
:100360004FF0030801E04FF0040808FA06F848EAE5
:100370000508CCF808804D68D9F80060ED034D46BB
:1003800001D5164300E096432E604D68DAF8006010
:10039000AD03554601D5164300E096432E604D68E7
:1003A000DBF80060ED025D4601D5164300E09643A0
:1003B0002E604D68DEF80060AD02754601D516432B
:1003C00000E096432E60641C0D682A46E5407FF4E9
:1003D00031AFBDE8F88F00000004014000001110AB
:1003E000001002400000014000080140000C0140E4
:1003F00000100140001401400AB101617047090476
:10040000FBE7000001488068704700000000002002
:1004100070B5040025D094F83D00002520B984F87B
:100420003C50204600F06EF9242084F83D002068FE
:10043000016821F0010101602068016841F4004178
:1004400001602068016821F40041016000F0AAFA0F
:100450004D4A6168914201D84C4900E04C498842BC
:1004600001D2012070BD4B492368B0FBF1F15E68F9
:1004700026F03F060E435E606368934206D94FF450
:10048000967359434FF47A73B1FBF3F12368491C17
:100490001E6A26F03F06314319626168914210D806
:1004A0004900401EB0FBF1F2521CC2F30B02042AB9
:1004B00001D2042022E0B0FBF1F0401CC0F30B009D
:1004C0001CE0A268F2B301EBC10303EB0116431E6B
:1004D000B3FBF6F35B1C43F480431B0549D092B396
:1004E00001EBC10202EB0111401EB0FBF1F0401C18
:1004F000C0F30B0040F4804040F400402168CA691A
:100500004CF6FF739A431043C861D4E907100143C6
:100510002068026822F0C00211430160D4E903019F
:1005200001432068826848F2FF339A431143816097
:10053000D4E9050108432168CA6822F0FF0210438C
:10054000C86001E00EE016E02068016841F001019A
:1005500001602564202084F83D00256384F83E5026
:10056000002070BD01EB4106431EB3FBF6F35B1C9C
:10057000B3E70120C2E701EB4101401EB0FBF1F0FF
:10058000401CC0F30B00B7E7A086010080841E006A
:1005900000093D0040420F002DE9FF4F81B0894620
:1005A0000446FFF72FFF054694F83D004FF0010881
:1005B00020287DD11923012250492046009500F0C2
:1005C000AFFC002874D194F83C00012870D00120C1
:1005D00084F83C0020680168C90703D1016841F034
:1005E000010101602068016821F40061016024209C
:1005F00084F83D00002626644148E0624FF0011B6C
:1006000020272068016841F4807101600095002274
:1006100059462046049B00F083FC50B120680068D6
:10062000C00502D54FF400702064032005B0BDE87A
:10063000F08F216809F0FE000861FFF7E3FE2168F2
:10064000054648694969C0F34000C1F380214FF075
:10065000A00A0FE0FFF7D6FE411B0498814200D8A4
:1006600008B984F83DA0216848694969C0F3400091
:10067000C1F3802194F83D20A02A02D008B90029B6
:10068000E8D084F83D7020684169C943890716D4D1
:10069000016841F400710160206841698069192393
:1006A000012216492046009500F03AFCB8B900E056
:1006B00021E084F83D7084F83C600020B6E70168D2
:1006C00041F40071016021686FF480604861192372
:1006D00001220A492046009500F022FC08B10120C1
:1006E000A4E7039808F1010880458AD384F83D7097
:1006F00084F83C60F3E7022098E700000200100055
:100700000000FFFF10B586B0002100910191029119
:1007100003910068104988421BD1104CA06940F039
:100720000800A061A069694600F0080004904FF439
:100730004060009012200190032003900848FFF7CA
:100740006BFDE06940F48000E061E06900F4800046
:10075000049006B010BD0000005800400010024098
:10076000000C0140024881680278114481607047A2
:1007700000000020074810B5016841F01001016039
:10078000032000F067F8002000F006F800F024F8DD
:10079000002010BD0020024070B50D4D04464FF4FE
:1007A0007A712878B1FBF0F00A490968B1FBF0F0E2
:1007B00000F0DEFA48B9102C07D200222146501E64
:1007C00000F028F800206C6070BD012070BD0000B2
:1007D000000000200C0000200C4808B5816941F0A1
:1007E00001018161816901F001010091C16941F05C
:1007F0008051C161C06900F0805000900448416898
:1008000021F0E06141F00071416008BD001002403C
:1008100000000140F0B40E4B1B680C46C3F30223EA
:10082000C3F10705042D00D90425191D072901D29C
:10083000002300E0DB1E012606FA05F1491E2140D7
:1008400099409E40761E16403143F0BC00F0B6BC85
:100850000CED00E0064900F0070208684FF6FF03C0
:10086000184040EA0220034A104308607047000025
:100870000CED00E00000FA052DE9F0470F460500F9
:1008800061D0434E306800F00700B84209D23068AA
:1008900020F0070038433060306800F00700B842AD
:1008A00051D128683B4C810712D5400703D56068B9
:1008B00040F4E06060602878000703D5606840F489
:1008C000605060606068A96820F0F00008436060D4
:1008D0002878C00728D06868012810D0216802282D
:1008E00010D0890700292EDA616821F00301014345
:1008F0006160FFF787FD804641F288390DE021688D
:100900008903EFE78901EDE7FFF77CFDA0EB080124
:10091000494502D90320BDE8F0876068696800F0A6
:100920000C00B0EB810FEFD1306800F00700B84247
:100930000BD9306820F0070038433060306800F091
:100940000700B84201D00120E5E72878400705D527
:100950006068E96820F4E060084360602878000778
:1009600006D56068296920F4605040EAC1006060E3
:1009700000F038F86168084AC1F30311515CC840BF
:100980000649086006480068FFF706FF0020C2E736
:100990000020024000100240CC1500080C0000208E
:1009A000040000200448054900684968044AC1F36E
:1009B0000221515CC84070470C000020001002402A
:1009C000DC1500080448054900684968044AC1F379
:1009D000C221515CC84070470C000020001002404A
:1009E000DC15000812A185B00FC98DE80F0014A016
:1009F000144A006804905168134801F00C03042B5A
:100A000010D0082B0ED1C1F38343C9031DF8030096
:100A10000AD5516804AAC1F34041515C0A4A5043C7
:100A2000B0FBF1F005B0704708494843FAE7000011
:100A300002030405060708090A0B0C0D0E0F10101F
:100A4000010200000010024000127A0000093D007F
:100A50002DE9F84F040070D02078C04DC00749D070
:100A60006868C0F38100012807D06868C0F381007E
:100A7000022809D16868C00306D52868800339D5E3
:100A800060680028E7D035E06068B0F5803F0BD0A3
:100A900010B1B0F5A02F11D0286820F48030286064
:100AA000286820F4802002E0286840F48030286024
:100AB000606890B1FFF7A6FC06460AE0286840F49B
:100AC00080202860F0E700BFFFF79CFC801B6428B3
:100AD00073D828688003F7D50CE0FFF793FC06462F
:100AE00005E000BFFFF78EFC801B6428F0D8286863
:100AF0008003F7D420789A4E80074FF001094FF019
:100B0000000839D5686810F00C0F07D06868C0F38A
:100B10008100022809D16868C00306D428688007CC
:100B200014D52069012808D110E02069B0B1C6F8B9
:100B30000090FFF767FC074605E00AE1FFF762FC5B
:100B4000C01B0228C4D828688007F7D528686169C7
:100B500020F0F80040EAC10028600DE0C6F80080EF
:100B6000FFF750FC074604E0FFF74CFCC01B0228CF
:100B700023D828688007F7D4207800072CD5794837
:100B8000A169D9B1C0F80090FFF73CFC074604E02A
:100B9000FFF738FCC01B02280FD8686A8007F7D51A
:100BA00071484FF4FA510068B0FBF1F0009000BFBB
:100BB0000098411E0091FAD20EE080E0C0F800805B
:100BC000FFF720FC074604E0FFF71CFCC01B0228CF
:100BD00075D8686A8007F7D42078400760D5E8693F
:100BE0000027C00008D4E86940F08050E861E86957
:100BF000012700F0805000905C480168C90513D4BB
:100C00000168834641F480710160FFF7FBFB824677
:100C100006E000BFFFF7F6FBA0EB0A0064284ED801
:100C2000DBF80000C005F5D5E06801280AD008B15E
:100C3000052813D0286A20F001002862286A20F0D5
:100C4000040002E0286A40F001002862E06841F2F6
:100C5000883B98B1FFF7D6FB82460BE0286A40F04C
:100C600004002862EEE700BFFFF7CCFBA0EB0A010F
:100C700059455AD8286A8007F6D50CE0FFF7C2FB21
:100C8000824605E0FFF7BEFBA0EB0A0159454CD8B0
:100C9000286A8007F6D41FB1E86920F08050E86127
:100CA000E06988B36968C1F38101022944D0022850
:100CB000C6F8608004D0FFF7A5FB044638E034E0B6
:100CC000FFF7A0FB074604E0FFF79CFBC01B0228D0
:100CD0002BD828688001F7D4206AB0F5803F05D171
:100CE0006868A16820F4003008436860D4E908010E
:100CF0000843696821F4741108436860C6F860907D
:100D0000FFF780FB044606E025E000BFFFF77AFB13
:100D1000001B022809D828688001F7D51BE000BF16
:100D2000FFF770FB001B022802D90320BDE8F88FF3
:100D300028688001F4D40EE00128F7D06868226AA0
:100D400000F48031914204D1616A00F4701088424D
:100D500001D00120EAE70020E8E70000001002408F
:100D600000004242800442420C000020007000401B
:100D700010B5401EB0F1807F01D3012010BD4FF0AF
:100D8000E02460610F21601700F018FA0020A061D4
:100D900007202061002010BD70B5040004D094F835
:100DA0003900002510B106E0012070BD84F83850EC
:100DB000204600F023F8242084F839002068C16818
:100DC00021F40051C160204600F054F92068016907
:100DD00021F4904101612068416921F02A014161BB
:100DE0002068C16841F40051C160E563202084F8A7
:100DF000390084F83A00002070BD000030B585B09D
:100E000000240094019402940394006814498842D9
:100E100024D11448816941F480418161816901F4E0
:100E200080410491816941F00401816180690E4D26
:100E300000F0040004904FF4007000900220019034
:100E40000320039069462846FFF7E6F92815CDE907
:100E50000004694628460294FFF7DEF905B030BD6C
:100E60000038014000100240000801402DE9F8431D
:100E7000044690F839001F4616460D4620284CD1EE
:100E8000C5B1BEB194F83800012846D0012084F8DD
:100E900038004FF00008C4F83C80212084F8390065
:100EA000FFF7B0FAA6848146E684A068B0F5805FBB
:100EB00003D004E00120BDE8F883206928B12E4664
:100EC0005FF0000584F838800EE00026FAE7802104
:100ED000204600F02BF9A0B9AEB116F8010B21683D
:100EE0004860E08C401EE084E08C4B464FF00002EE
:100EF00000970028EBD14FF04001204600F016F992
:100F000030B10320D7E735F8020BC0F30800E6E75D
:100F1000202084F839000020CDE70220CBE7FEE74F
:100F20002DE9F0471E4690460D460446C1F307479B
:100F3000DDF8209008E0701C06D0FFF763FAA0EB04
:100F40000900B0420FD876B12068012F18D080690F
:100F500025EA00000004000C14D000214145EAD02D
:100F60000020BDE8F087002044F8300F2021617395
:100F7000A073216941F02001216120730120F0E775
:100F80004069E5E70121E9E770B586B000241C4817
:100F90000094019402940394816941F010018161ED
:100FA000816901F010010491816941F020018161A2
:100FB000816901F020010491816941F0080181619A
:100FC000816901F008010491816941F004018161A6
:100FD00080690C4E00F004004FF40055049000228C
:100FE00029463046FFF708FA01200095CDE90104B3
:100FF0000220039069463046FFF70EF906B070BD37
:101000000010024000100140FEE7FEE77047704705
:10101000FFF7A8BB30B58FB028216846FFF79BF8D3
:1010200014210AA8FFF797F801210804CDE9001060
:101030000024029402250491CDE907504FF4E010FA
:1010400009906846FFF704FD08B172B6FEE70F206D
:10105000CDE90A054FF48060CDE90C4002210AA8D1
:101060000E94FFF709FC002801D072B6FEE70FB01E
:1010700030BD704770B5044600680169E26821F42C
:101080004051114301612169A06808436169084327
:101090002168CA6841F20C639A430243CA6020681F
:1010A0004169A26921F44071114341611E492068E0
:1010B000884202D1FFF786FC01E0FFF773FC00EBEA
:1010C000C00101EB0012606864218000B2FBF0F304
:1010D000B3FBF1F36FF018067343B2FBF0F5B2FB0C
:1010E000F0F605EB8305322303EB0515B5FBF1F5AF
:1010F000B6FBF1F605F0F00505EB0615B2FBF0F6D0
:10110000B2FBF0F0B0FBF1F06FF01802504306EBC9
:10111000800003EB0010B0FBF1F0216800F00F003D
:101120002844886070BD0000003801402DE9F0417E
:10113000984617460E460446069D1DE0681C1BD0C7
:101140002DB1FFF75FF9A0EB0800A84214D9206881
:10115000C16821F4D071C1602068416921F00101AA
:101160004161202084F8390084F83A00002084F896
:1011700038000320BDE8F0812068006836EA0000EE
:1011800004D00020B842D9D00020F3E70120F9E7CD
:10119000FEE700000FB4084B10B504A902AA03989B
:1011A00000F02CF8044602A9002000F087F9204640
:1011B00010BC5DF814FB0000BD1400080907090EFF
:1011C000002804DB00F1E02080F80014704700F0F4
:1011D0000F0000F1E02080F8141D704702E008C8FD
:1011E000121F08C1002AFAD170477047002001E0A1
:1011F00001C1121F002AFBD1704700002DE9FF4FEB
:101200008DB09B460F460446002606E025280BD0ED
:101210005A460F999047641C761C20780028F5D117
:1012200011B03046BDE8F08F0025A846012298494C
:1012300000E0054314F8013F203B02FA03F00842A6
:10124000F7D120782E2817D114F8010F45F00405A6
:101250002A280ED06FF02F022078A0F13001092942
:101260000AD808EB880102EB410100EB0108641C7D
:10127000F2E757F8048B641C20786C280DD004DC4E
:101280004C2812D06A2811D104E074280DD07A2895
:101290000CD10AE045F4001507E0617845F48015AB
:1012A000814202D1641C05F58015641C20786928F0
:1012B00044D008DC0028B3D0582867D063280FD06A
:1012C000642808D13AE0702865D0732812D07528B8
:1012D0005AD078285AD05A460F999047761CD5E0B4
:1012E00017F8040B8DF8000000208DF80100E94686
:1012F000012003E057F8049B4FF0FF3069074FF0DF
:10130000000501D40AE06D1C45450DDA8542FADB83
:1013100019F805100029F6D106E06D1C8542FCDBAA
:1013200019F805100029F8D12E4404E019F8010B32
:101330005A460F9990476D1EF8D2A7E00A20002167
:10134000CDE90801C5F3025002280CD001CFC11726
:10135000021E71F100020CDA0023D0EB030063EBF4
:1013600001012D2208E0FF1D27F00707F7E8020121
:10137000EEE72A0504D52B228DF8282001223CE037
:10138000EA073AD02022F7E70A2000E010200021E7
:10139000CDE9080107E01020002145F00405CDE962
:1013A00008014FF00808C5F30250022810D001CF01
:1013B00000214FF0000A2A0720D52278702A0DD08C
:1013C000DDE908C38CF0100C5CEA030C0CD015E0CE
:1013D000FF1D27F00707F7E80201EAE740228DF832
:1013E00028204FF0010A0CE050EA010306D0302318
:1013F0008DF828308DF82920022292462278582A2A
:1014000004D024A20DF120090B9209E026A2F9E7ED
:10141000DDE90823FEF7AAFE0B9B9B5C09F8013D62
:1014200050EA0102F4D1ADEB0900203008906807C2
:1014300001D44FF001080899884503DD0898A8EB0E
:10144000000000E000208046002506E00AA85A4679
:10145000405D0F9990476D1C761C5545F6DB04E006
:1014600030205A460F999047761CB8F10001A8F138
:101470000108F5DC05E019F8010B5A460F99904771
:10148000761C0899481E08900029F4DC641CC4E608
:10149000092801003031323334353637383961624A
:1014A000636465660000000030313233343536370E
:1014B0003839414243444546000000000A68531C45
:1014C0000B6010707047000088B0FFF753F9FFF70A
:1014D000A1FDFFF759FD2E482C49002401602D493C
:1014E000C0E901144FF48041C0E9034144618461C3
:1014F000C4610462FEF78CFF08B172B6FEE72448AF
:101500002549543001604FF4E131C0E901140C2148
:10151000C460C0E904418461C461FFF73DFC08B1C7
:1015200072B6FEE71C216846FEF715FE18484FF01C
:10153000FF352B46182219A15430FFF797FC0124E0
:101540005FEA154606EA44012B4603221048FFF7DE
:1015500023F818B12B46042216A107E0224616A153
:101560006846FFF717FE2B46192269460848543093
:10157000FFF77CFC641C802CE4DB05482B460B2227
:101580000FA15430FFF772FCFEE700000058004046
:1015900010000020A08601000038014053656172F0
:1015A0006368696E6720697320737461727465641F
:1015B000200D0A00202D2000307825580000000062
:1015C00046696E69736865640D0A000000000000DA
:1015D00000000000010203040607080900000000E3
:1015E000010203040416000800000020100000009F
:1015F000DC110008141600081000002098400000BC
:10160000EC110008010000001000000000000000C4
:041610000024F400BE
:04000005080000ED02
:00000001FF
